:1010000000000420AD820000E5820000212C0000D9
:10101000E9820000312C0000392C000000000000A3
:10102000000000000000000000000000394A00003D
:10103000F182000000000000D14A0000E14A0000F7
:101040000D000100711E0000F7820000F782000011
:10105000F7820000F7820000F7820000F7820000AC
:10106000F7820000F7820000FD1E0000DD1E000078
:10107000F7820000F7820000F78200009D1E00004A
:10108000F7820000F7820000F7820000F78200007C
:10109000F7820000F7820000F7820000F78200006C
:1010A000F7820000F7820000F7820000F78200005C
:1010B000F7820000F782000000000000000000003E
:1010C000F7820000F7820000F7820000F78200003C
:1010D000F7820000F7820000F7820000F78200002C
:1010E000F7820000F7820000F78200000000000095
:1010F00000000000F782000000000000F7820000FE
:1011000010B5054C237833B9044B13B10448AFF341
:1011100000800123237010BDB80D002000000000E6
:1011200004D0010008B5034B1BB103490348AFF3DA
:10113000008008BD00000000BC0D002004D00100AC
:10114000154B002B08BF134B9D46A3F5803A002199
:101150008B460F461348144A121A15F0DBFF0F4B4B
:10116000002B00D098470E4B002B00D09847002052
:10117000002104000D000D48002802D00C4802F0A8
:1011800084FD15F085FB2000290003F0E9F902F049
:1011900076FD00BF000008000000042000000000F1
:1011A000A1440000B80D0020E82E00208B3C000078
:1011B0000000000082B00190019B1B681F2B02D829
:1011C0004FF0A04306E0019B1B6803F01F02019B48
:1011D0001A60024B184602B0704700BF000300506F
:1011E00000B585B0019001AB1846FFF7E3FF03900F
:1011F000019B012202FA03F31946039800F018F844
:1012000000BF05B05DF804FB00B585B0019001ABEF
:101210001846FFF7CFFF0390019B012202FA03F368
:101220001946039800F00EF800BF05B05DF804FB06
:1012300082B001900091019B009AC3F8082500BF7D
:1012400002B0704782B001900091019B009AC3F8F0
:101250000C2500BF02B0704700B583B0019000912B
:10126000019B93F90030B3F1FF3F04D120220C49D8
:101270000C4801F039FF009B002B06D0019B93F92D
:1012800000301846FFF7ACFF05E0019B93F90030F2
:101290001846FFF7B9FF00BF03B05DF804FB00BFBD
:1012A000D4B4010014B5010000B583B001900B4621
:1012B0008DF80330019B00221A70019B9DF90320D9
:1012C0001146184600F0F7FE019B184603B05DF882
:1012D00004FB00B583B001900091019B0099184672
:1012E000FFF7BAFF00BF03B05DF804FB00B583B0A1
:1012F0000190019B184607F07FFD0346184603B096
:101300005DF804FB00B583B0019002F01FF8019B6B
:101310000121184607F04EFF02F032F800BF03B07B
:101320005DF804FB00B583B0019002F00FF8019B5B
:101330000021184607F03EFF02F022F800BF03B07C
:101340005DF804FB00B583B001900B468DF80330C7
:1013500001F0FCFF019B9DF803201146184607F0A1
:10136000F1FE02F00DF800BF03B05DF804FB0000D1
:1013700082B00190019B1B681F2B02D84FF0A04345
:1013800006E0019B1B6803F01F02019B1A60024BE1
:10139000184602B0704700BF0003005000B585B08A
:1013A000019001AB1846FFF7E3FF0390019B012278
:1013B00002FA03F31946039800F018F800BF05B0CD
:1013C0005DF804FB00B585B0019001AB1846FFF74E
:1013D000CFFF0390019B012202FA03F31946039801
:1013E00000F00EF800BF05B05DF804FB82B001907C
:1013F0000091019B009AC3F8082500BF02B0704716
:1014000082B001900091019B009AC3F80C2500BFA7
:1014100002B0704700B583B001900091019B93F931
:101420000030B3F1FF3F04D120220C490C4801F0F9
:101430005BFE009B002B06D0019B93F90030184601
:10144000FFF7ACFF05E0019B93F900301846FFF76A
:10145000B9FF00BF03B05DF804FB00BF74B5010025
:10146000B4B5010000B583B001900B468DF8033090
:10147000019B00221A70019B9DF90320114618461A
:1014800000F03FFE019B184603B05DF804FB00B579
:1014900083B001900091019B00991846FFF7BAFFB5
:1014A00000BF03B05DF804FB00B583B00190019B61
:1014B000184607F0A1FC0346184603B05DF804FB8C
:1014C00082B001900091009B184602B0704700B5B1
:1014D00083B00190009100990198FFF7FAFE019BFB
:1014E000184603B05DF804FB00B583B00190019885
:1014F000FFF7FCFE0346184603B05DF804FB00B599
:1015000083B00190019BDB68002B04D0019BDB685A
:101510009B6801989847019B184603B05DF804FB4F
:1015200000B583B001900091009B002B05D11022E3
:101530000021019815F0EEFD04E06B461946019874
:1015400000F006F8019B184603B05DF804FB0000AC
:1015500000B583B00190009110220021019815F090
:10156000D9FD019B19460420FFF7AAFF0246009B04
:101570001B681360019B034ADA6000BF03B05DF88B
:1015800004FB00BF14B6010000B583B001900091C8
:10159000019B1B680098984700BF03B05DF804FBEF
:1015A00000B583B001900091019B19460420FFF71C
:1015B00087FF0246009B1B68136000BF03B05DF805
:1015C00004FB82B0019000BF02B0704700B583B049
:1015D00001900091009B002B05D110220021019861
:1015E00015F098FD04E06B461946019800F046F8A6
:1015F000019B184603B05DF804FB00B583B0019071
:10160000019BDB68002B04D0019BDB689B68019881
:101610009847019B184603B05DF804FB82B0019027
:10162000019BDB68002B14BF01230023DBB21846AB
:1016300002B0704700B583B001900091019A009B01
:101640009A420CD00198FFF7D8FF019B1946102051
:10165000FFF736FF03460099184600F02BF8019B70
:10166000184603B05DF804FB00B583B00190019803
:1016700000F03CF803B05DF804FB000000B583B057
:101680000190009110220021019815F043FD019B6B
:1016900019460420FFF714FF0246009B1B681360E5
:1016A000019B034ADA6000BF03B05DF804FB00BF92
:1016B00020B6010000B583B00190009110220021F6
:1016C000019815F027FD009BDB68002B05D0009BDF
:1016D000DB685B68009901989847009BDA68019B7A
:1016E000DA60019B184603B05DF804FB00B583B0D7
:1016F0000190019BDB68002B05D140F23B2206499B
:10170000064801F0F1FC019BDB681B6801989847D3
:1017100000BF03B05DF804FB2CB6010050B6010019
:1017200000B583B00190019B1B68984700BF03B0D0
:101730005DF804FB00B583B001900091019B194650
:101740000420FFF7BDFE0246009B1B68136000BF2C
:1017500003B05DF804FB82B0019000BF02B0704797
:1017600000B583B00190009100990198FFF78FFEBA
:10177000019B184603B05DF804FB82B00190009114
:101780006FF01503184602B0704700B585B003909E
:1017900002910192039B1B6810331B68019A029906
:1017A000039898470346184605B05DF804FB00B55A
:1017B00083B00190019B1B6818331B680198984700
:1017C0000346184603B05DF804FB00B583B00190F2
:1017D000019B1B6828331B680198984703461846ED
:1017E00003B05DF804FB82B001900B468DF8033026
:1017F0009DF80330002B01D0002301E06FF01803A7
:10180000184602B0704782B001900123184602B01A
:10181000704782B001900B468DF803306FF01503CE
:10182000184602B0704782B001900B468DF8033025
:101830006FF01503184602B0704782B001900B4656
:10184000ADF802301123184602B0704782B0019003
:10185000009100BF02B0704710B582B001900198AE
:1018600000F0C3F8019B00221A60019A4FF00003B8
:101870004FF00004C2E90234019A4FF000034FF028
:101880000004C2E9043401F081F90246019B9A6127
:10189000019B01221A77019800F08CF8019B1846F1
:1018A00002B010BD00B583B0019001F04FFD019B67
:1018B0001B68002B05D0019B1B7F002B01D002F081
:1018C000EFFA019B00221A6001F05AFD019800F026
:1018D00092F8019B184603B05DF804FB10B582B086
:1018E000019001F033FD019B1B68002B12D1019B7D
:1018F0001B7F002B01D002F0B5FA019B9B691846B3
:1019000001F003F903460C46019AC2E90234019B37
:1019100001221A6001F034FD00BF02B010BD10B505
:1019200082B00190019800F005F803460C46184675
:1019300002B010BDF0B585B0019001F007FD019B2C
:10194000D3E90445019800F00FF802460B46A618AB
:1019500045EB0307CDE9026701F012FDDDE9023432
:101960001846214605B0F0BD70B584B001904FF027
:1019700000034FF00004CDE9023401F0E7FC019BC5
:101980001B68002B0ED0019B9B69184601F0BDF827
:101990000A460146019BD3E90234CD1A62EB0406E4
:1019A000CDE9025601F0ECFCDDE90234184621468F
:1019B00004B070BD10B582B0019001F0C7FC019B6E
:1019C0009B69184601F0A1F803460C46019AC2E94A
:1019D0000234019A4FF000034FF00004C2E90434CE
:1019E00001F0CEFC00BF02B010BD82B00190019B9F
:1019F000184602B0704782B00190019B184602B0B1
:101A00007047000010B582B001900091019800F07D
:101A100068F80E4A019B1A60019A4FF000034FF0DC
:101A20000004C2E90234019B00221A61019B0022DA
:101A30005A61019B009A9A61019B9B69044918466F
:101A400000F072FF019B184602B010BD60B60100A5
:101A5000551A000000B585B00190019B0393039BCC
:101A60001B6808331B680398984700BF05B05DF8F2
:101A700004FB000000B583B00190074A019B1A6087
:101A8000019800F01FF8019800F031F8019B18460A
:101A900003B05DF804FB00BF60B6010000B587B07D
:101AA0000590CDE90223059B9869059B03F1080188
:101AB000059B0093DDE9022300F09CFF00BF07B007
:101AC0005DF804FB00B583B00190019B9A69019B0E
:101AD00008331946104600F0DDFF00BF03B05DF883
:101AE00004FB82B00190019B184602B0704782B09F
:101AF0000190019B184602B07047000000B583B00A
:101B00000190054A019B1A60019800F045F8019B7D
:101B1000184603B05DF804FB70B7010000B583B050
:101B200001900198FFF7EAFF0421019802F062F9A1
:101B3000019B184603B05DF804FB00B583B001902B
:101B4000019B1B6810331B680122002101989847F4
:101B50000346184603B05DF804FB00B583B001905E
:101B6000019B1B6810331B680022002101989847D5
:101B700000BF03B05DF804FB00B583B0019001988D
:101B800000F010F8034A019B1A60019B184603B04D
:101B90005DF804FB70B7010082B00190019B18460C
:101BA00002B0704782B00190019B184602B07047A6
:101BB00000B585B0039002910192039800F02EF8D1
:101BC000039B4C3300211846FFF7AAFC019B002B16
:101BD00005D1039B0299184600F02CF805E0039B01
:101BE000019A0299184600F042F8039B184605B086
:101BF0005DF804FB00B583B00190019B184600F02E
:101C0000AAF8019B4C331846FFF779FC019800F0C5
:101C10000BF8019B184603B05DF804FB82B00190FD
:101C2000019B184602B0704782B00190019B184694
:101C300002B0704700B585B001900091009814F093
:101C40004BFE03460393039B002B02D14FF0FF335F
:101C500009E0039A0099019800F009F80290019BAD
:101C6000039A5A61029B184605B05DF804FB00B563
:101C700087B0039002910192019B033323F0030389
:101C80001A46039BDA60039BDA68019BD31A1A4653
:101C9000029B9B1A0293029B23F003030293039B74
:101CA00000225A61039B00221A61029B059307E000
:101CB000039B1B695A1C039B1A61059B5B080593D8
:101CC000059B002BF4D1039B00229A61039B029A8F
:101CD000DA61039BDA68039B1A62039B00221A6095
:101CE00000F088F80246039B5A60039B00225A7258
:101CF000039B00221A72039B002283F82420039B7B
:101D000000229A62039B0022DA62039B303318465A
:101D100000F081F80490049B002B01DA049B16E08C
:101D2000039B4433184600F06BF80490049B002B8F
:101D300001DA049B0BE0039B4833184600F060F87F
:101D40000490049B002B01DA049B00E0002318465A
:101D500007B05DF804FB00B585B00190019B1B68DE
:101D6000039320E0039BDB6802930CE0029BDB699A
:101D7000002B05D0029BDB69029A2432104698475B
:101D8000029BDB680293029B002BEFD1039BDB6974
:101D9000002B05D0039BDB69039A24321046984739
:101DA000039B9B680393039B002BDBD1019B9B6AE6
:101DB000002B07D0019B9B6A019AD26A4FF0FF313A
:101DC00010469847019B4833184600F01FF8019BC6
:101DD0004433184600F01AF8019B3033184600F0DF
:101DE0003BF8019B5B69184614F07EFD00BF05B00F
:101DF0005DF804FB08B503F0C1FB0346184608BDB7
:101E000082B001900023184602B0704782B0019062
:101E100000BF02B0704700B587B0019002AB10223E
:101E20000021184615F076F9019B04330493102322
:101E3000059302AB184602F0F7FF0246019B1A60B9
:101E4000019B1B68002B02D14FF0FF3300E0002301
:101E5000184607B05DF804FB00B583B00190019B04
:101E60001B68184603F006F800BF03B05DF804FBDA
:101E700008B5084B1B781A46074B53F82230002B45
:101E800006D0044B1B781A46034B53F82230984770
:101E900000BF08BD04020020D40D002082B00C4B0E
:101EA0000122C3F8082307E000238DF807309DF8CE
:101EB000073001338DF80730064B5B78FF2BF3D0EA
:101EC000054B1B88DAB2034B5A7000BF02B0704753
:101ED00000F00040241D0020AC1D0020064BD3F86C
:101EE0004031002B06D0044B0022C3F84021024BA6
:101EF000D3F8403100BF704700B0004008B50A4B2E
:101F00004FF48032C3F80823074B0022C3F8402166
:101F1000064B01221A70054B9B68002B02D0034B25
:101F20009B68984700BF08BD00A00040E80D002056
:101F300082B00190019B1B681F2B02D84FF0A04379
:101F400006E0019B1B6803F01F02019B1A60024B15
:101F5000184602B0704700BF0003005000B585B0BE
:101F6000019001AB1846FFF7E3FF0390019B0122AC
:101F700002FA03F31946039800F018F800BF05B001
:101F80005DF804FB00B585B0019001AB1846FFF782
:101F9000CFFF0390019B012202FA03F31946039835
:101FA00000F00EF800BF05B05DF804FB82B00190B0
:101FB0000091019B009AC3F8082500BF02B070474A
:101FC00082B001900091019B009AC3F80C2500BFDC
:101FD00002B0704700B583B001900091019B93F966
:101FE0000030B3F1FF3F04D120220C490C4801F02E
:101FF0007BF8009B002B06D0019B93F9003018461C
:10200000FFF7ACFF05E0019B93F900301846FFF79E
:10201000B9FF00BF03B05DF804FB00BF6CB6010060
:10202000ACB6010000B583B001900B468DF80330CB
:1020300013468DF802309DF903301946019806F0D9
:10204000A5FE9DF90330B3F1FF3F09D000210198AF
:1020500007F0B0F89DF802301946019807F072F8C1
:1020600000BF03B05DF804FB00B585B00390019399
:102070000B468DF80B3013468DF80A309DF90B3066
:102080001946039806F082FE9DF90B30B3F1FF3F2D
:102090000DD001990398FFF79DFF0121039807F0E8
:1020A00089F89DF80A301946039807F04BF800BFED
:1020B00005B05DF804FB00B583B001900B468DF8C8
:1020C00003309DF9033003221946019800F004F80B
:1020D00000BF03B05DF804FB00B583B001900B4670
:1020E0008DF8033013468DF802309DF802209DF9DB
:1020F000033019460198FFF795FF00BF03B05DF864
:1021000004FB00B583B001900B468DF803309DF9B8
:10211000033000221946019800F004F800BF03B014
:102120005DF804FB00B585B003900B4601928DF875
:102130000B309DF90B10019B00220398FFF794FFD1
:1021400000BF05B05DF804FB014B1846704700BFA7
:10215000E8B6010008B5054B1B68002B03D0034B04
:102160001B680348984700BF08BD00BF0802002055
:10217000E8B601002DE9F0478EB00590059B5B683D
:1021800093F83830002B40F00181059B5B6893F891
:102190003A30002B40F0FC80059B1B681B68984779
:1021A000059B1B68DB6998470C900C9B1B680B9385
:1021B0000C9B1B68002B04D12D227749774800F037
:1021C00093FF00238DF837301F238DF8363011E050
:1021D0009DF83630012202FA03F30B9A9A4204D199
:1021E0009DF836308DF8373008E09DF83630013BE9
:1021F0008DF836309DF83630002BE9D10C9B5B68AA
:102200000A930C9B5B68202B03D80C9B5B68032B09
:1022100004D83B226049614800F066FF0A9B043BFA
:10222000072202FA03F30993099B1D464FF00006AB
:102230002B4634464FF000014FF00002620142EAA3
:10224000D36259010B4614465B1B64EB06044FF046
:1022500000014FF00002620242EAD35259020B46DB
:1022600014465B1946EB04044FF000014FF00002E6
:10227000A20142EA93629901C91A62EB04024B1966
:10228000009342EB060301930B9B4FF00004DDE942
:102290000001024612EB03090A4642EB040A19F157
:1022A000FF3302934AF1FF3303930B9B4FF000047B
:1022B0001A462346DDE9020118F07EFF03460C466C
:1022C000CDE90634059B5B6800221A60059B5B68BC
:1022D00000225A60059B1B685B68059A5468984702
:1022E00003462362059B5A684FF000034FF0000439
:1022F000C2E90A34059B5B680B9A9A60059B5B6890
:102300009DF8372083F83B204FF001034FF0000485
:102310000A9AA2F12000C2F1200104FA02F803FA9D
:1023200000F048EA000823FA01F148EA010803FA3C
:1023300002F73A46059B5B68013ADA60059B5B68E9
:10234000099A1A61059B5A68DDE90634C2E9063428
:10235000059B5A684FF000034FF00004C2E90C34AB
:10236000059B5B68002283F83920059B5B6800228F
:1023700083F83A20059B5B68012283F83820059892
:1023800000F018F8059800F05BFA02E000BF00E0EA
:1023900000BF0EB0BDE8F087F0B6010014B7010031
:1023A00082B001900091019B5B68009A1A6000BFA7
:1023B00002B070472DE9F047A2B01790179B5B68F9
:1023C0001F931F9B93F83A30002B40F06A81179BB4
:1023D0001B685B6898471E90179B5B681A6A1E9B78
:1023E000934200F060811F9B1A6A1E9B9A1A1F9BE2
:1023F000DB6813404FF00004CDE91C341F9A1E9B8C
:1024000013621F9B9A68AA4B9A4204D1DDE91C34DF
:10241000CDE9203435E11F9B93F83B30002B00F0D1
:10242000A180DDE91C562B4634464FF000014FF0E9
:102430000002620142EAD36259010B4614465B1B5B
:1024400064EB06044FF000014FF00002620242EA22
:10245000D35259020B4614465B1946EB04044FF065
:1024600000014FF00002A20142EA93629901C91AE9
:1024700062EB04024B190E9342EB06030F93DDE966
:102480000E34CDE91A341F9B93F83B301846DDE932
:102490001A34C0F12002A0F1200123FA00F904FA55
:1024A00002F249EA020924FA01F149EA010924FA8F
:1024B00000FACDE9209A1F9BD3E90A561F9B93F897
:1024C0003B301846DDE92034A0F12002C0F12001A4
:1024D00004FA00F803FA02F248EA020823FA01F1CA
:1024E00048EA010803FA00F7DDE91A34DA1B009222
:1024F00064EB08030193DDE900120B46EB1802932D
:10250000134646EB030303931F9BDDE90212C3E965
:102510000A121F9BD3E90A121F9B9B684FF000040D
:10252000A24208BF9942C0F0AC80DDE920345A1CB9
:10253000109244F100031193DDE91034CDE9203409
:102540001F9BD3E90A121F9B9B684FF00004C81A17
:10255000049062EB040305931F9BDDE90412C3E9B9
:102560000A128EE0DDE91C562B4634464FF000017E
:102570004FF00002620142EAD36259010B46144651
:102580005B1B64EB06044FF000014FF00002620297
:1025900042EAD35259020B4614465B1946EB040437
:1025A0004FF000014FF00002A20142EA936299014C
:1025B000C91A62EB04024B19129342EB0603139300
:1025C000DDE91234CDE918341F9B9B684FF00004FD
:1025D0001A462346DDE9180118F0EEFD03460C46C5
:1025E000CDE920341F9BD3E90A561F9B9B684FF00F
:1025F0000004209A04FB02F1219A03FB02F28818DE
:10260000209AA2FB031283181A46DDE91834581ADF
:10261000069064EB02030793DDE906120B46EB1804
:102620000893134646EB030309931F9BDDE9081249
:10263000C3E90A121F9BD3E90A121F9B9B684FF044
:102640000004A24208BF99421BD3DDE920345A1C82
:10265000149244F100031593DDE91434CDE92034DC
:102660001F9BD3E90A121F9B9B684FF00004C81AF6
:102670000A9062EB04030B931F9BDDE90A12C3E986
:102680000A121F9BD3E90C12DDE92034C8180C9004
:1026900042EB04030D931F9BDDE90C12C3E90C12FE
:1026A00002E000BF00E000BF22B0BDE8F08700BF3D
:1026B00040420F002DE9F04F89B00390CDE900238F
:1026C000039B5B680693069BD3E90C23DDE90001BD
:1026D000861A61EB0307CDE90467039B5B681B69FE
:1026E0000793039B5B68D3E90601DDE90423994264
:1026F00008BF904272D3069B9B683E4A93420CD11E
:10270000049B0793039B5B681B69079A9A4265D9F0
:10271000039B5B681B69079360E0069B93F83B3063
:10272000002B30D0039B5B6893F83B301946DDE902
:102730000423A1F12006C1F1200003FA01F502FAF9
:1027400006F6354322FA00F0054302FA01F42A4A5C
:102750004FF0000314EB020A45EB030B254A4FF040
:1027600000035046594618F027FD03460C460793D0
:10277000039B5B681B69079A9A422FD9039B5B688E
:102780001B6907932AE0069B9B684FF00004049A9C
:1027900004FB02F1059A03FB02F20A440499A1FB2F
:1027A00003342244144614494FF0000213EB01088D
:1027B00044EB02090F4A4FF000034046494618F027
:1027C000FBFC03460C460793039B5B681B69079A57
:1027D0009A4203D9039B5B681B690793069B1A6A9D
:1027E000079B1A44069BDB681340184609B0BDE8F6
:1027F000F08F00BF40420F003F420F0084B00390B3
:1028000002910192019A039B9A420BD9029A019B71
:102810009A4203D2029A039B9A4201D201230CE00E
:1028200000230AE0029A039B9A4205D2029A019B76
:102830009A4201D3012300E00023184604B07047F8
:1028400010B58CB00190019B5B680B930B9B93F8C8
:102850003A30002B60D1019B5B6893F83930002B34
:102860005AD10198FFF7A6FD019B5B685B68002BBE
:1028700043D0019B5B68D3E90C34CDE90834019B5C
:102880005B685B68D3E90034CDE90634DDE90634E2
:10289000DDE90812A24208BF994204D3019B1B68DC
:1028A0005B69984739E0DDE906230198FFF702FFED
:1028B00005900B9B1B6A059A9A4205D14FF48472CE
:1028C0001749184800F010FC019B1B681B6905980C
:1028D0009847019B1B685B68984704900B9B1B6A99
:1028E000059A04991846FFF789FF0346002B14D078
:1028F000019B1B685B6998470FE00B9B1A6A0B9B57
:102900001B691A440B9BDB6813400393019B1B68F4
:102910001B690398984700E000BF0CB010BD00BFD2
:10292000F0B6010018B7010000B583B00190009126
:102930000198FFF71FFC00F009FD00990198FFF7CF
:102940002FFD00F01DFD00BF03B05DF804FB10B5C6
:1029500084B0019000F0FAFC019B1B68DB6898478B
:10296000019B5B6893F83A30002B02D000F008FD21
:102970003EE0019B5B68012283F83920019B5B6884
:102980005B68002B27D00198FFF714FD019B5B6863
:102990005B68D3E90034019A5268D2E90C12A24272
:1029A00008BF994219D3019B5B685B680393019B45
:1029B0005B685A68019B5B68D2685A60019B5B68E0
:1029C0001B68002BDAD0019B5B681B68039A926836
:1029D00010469847D2E700BF00E000BF019B5B684C
:1029E000002283F839200198FFF72AFF00F0C8FC85
:1029F00004B010BD10B586B003900291CDE900235C
:102A000000F0A4FC0398FFF7D5FC029ADDE900343E
:102A1000C2E90034029B089A9A6000230593039B45
:102A20005B685B6804930DE0049BD3E90034DDE947
:102A30000012A24208BF994208D3049B0593049B4D
:102A4000DB680493049B002BEED100E000BF029BE7
:102A5000049ADA60059B002B04D1039B5B68029A01
:102A60005A6002E0059B029ADA60059B002B09D0B0
:102A7000039B5B68D3E90C12DDE90034A24208BF76
:102A8000994202D30398FFF7DBFE00F079FC00BF08
:102A900006B010BD00B585B00190009100F056FC65
:102AA000019B5B685B68009A9A4208D1019B5B6856
:102AB000009AD2685A600198FFF7C2FE14E0019BA9
:102AC0005B685B6803930CE0039BDB68009A9A42A7
:102AD00004D1009BDA68039BDA6005E0039BDB68A6
:102AE0000393039B002BEFD100F04AFC00BF05B01D
:102AF0005DF804FB10B582B00190019800F005F874
:102B000003460C46184602B010BD10B584B00190C3
:102B10000198FFF72FFB00F019FC0198FFF74AFC22
:102B2000019B5B68D3E90C34CDE9023400F028FC4A
:102B3000DDE902341846214604B010BD00B583B06B
:102B400008F090F9064B019301238DF80330019BA7
:102B50009DF803201A7000BF03B05DF804FB00BFAE
:102B6000AF1D002000B583B0074B019300238DF803
:102B70000330019B9DF803201A7008F027FA00BF6C
:102B800003B05DF804FB00BFAF1D0020014B1846E9
:102B9000704700BF60B7010008B5054B1B68002BEC
:102BA00003D0034B1B680348984700BF08BD00BF14
:102BB0000C02002060B7010082B00190002318468B
:102BC00002B0704782B001900023184602B07047EF
:102BD00000B585B00190019B1B6810331B68012272
:102BE0000021019898470390039B002B01DA039B77
:102BF00011E0019B1B6810331B6802220021019821
:102C000098470290019B1B6810331B6800220399B0
:102C100001989847029B184605B05DF804FB000038
:102C20004FF0100300F00CB84FF0200300F008B88C
:102C30004FF0300300F004B84FF0400300F000B84C
:102C4000EFF308804FF0040172460A4201D0EFF31F
:102C500009809C46244B196802680A600431426866
:102C60000A60043182680A600431C2680A60043173
:102C7000F0C147460F6004314F460F60043157469C
:102C80000F6004315F460F60043102690A60083149
:102C900042690A60043182690A600431C2690A60CB
:102CA0000431034620334FF40076324200D004331F
:102CB00075464FF01006354200D148330C46103CA3
:102CC0002360EFF309820A600431EFF308820A609F
:102CD000043172460A600431EFF314820A606046E0
:102CE000014900F003F8FEE7C4B7010000B587B062
:102CF00003900291002305931A4800F0BFFA039B4A
:102D0000302B0BD0039B402B0ED0039B202B11D1DB
:102D1000154800F0B3FA154B059311E0144800F084
:102D2000ADFA144B05930BE0134800F0A7FA134BD0
:102D3000059305E0124800F0A1FA124B059300BF7D
:102D4000114800F09BFA00F027F8104800F096FABE
:102D50000F4BDA6B0023009300230E49059800F017
:102D60004DFC00BFC8B70100F4B701003E01FF8071
:102D700004B801003F01FF8010B801004001FF804E
:102D80001CB801003D01FF8028B8010034B80100E3
:102D90000001002054B8010030B587B0002305932E
:102DA0000CE0454A059B9B0013441B681A46059995
:102DB000424800F063FA059B01330593059B0C2BF9
:102DC000EFDD3D4B586B3C4B9C6B3B4BDD6B3A4B0B
:102DD0001B6C394A526C3849896C029101920093FC
:102DE0002B4622460146364800F048FA354B1B6810
:102DF0001946354800F042FA324BD86A314B9B6A8B
:102E0000DCB2304B9B6A1B0ADDB22E4B9B6A1B0C5B
:102E10009BB22C4A126B2B49C96B02910192009311
:102E20002B4622460146294800F028FA254B9B6A8A
:102E300003F08003002B05D0224B5B6B194624481E
:102E400000F01CFA1F4B9B6A03F40043002B05D0D3
:102E50001C4B9B6B19461F4800F010FA164BDB6C9D
:102E600003F00803002B10D01B4800F007FA124BA8
:102E70001B6D03F00103002B03D0184800F0FEF98E
:102E800009E0174800F0FAF905E0164800F0F6F9F5
:102E9000134800F0F3F9084BDB6C03F00403002B3C
:102EA00003D0114800F0EAF902E0104800F0E6F91A
:102EB00000BF07B030BD00BF0001002064B80100B2
:102EC00074B8010000ED00E0C4B80100D4B80100FE
:102ED00024B9010034B9010044B9010054B901001A
:102EE00064B9010078B9010088B9010094B9010002
:102EF00084B0019001238DF80F3001989DF80F30B8
:102F0000019AD0E84F1FC0E84C3F62468DF80E1082
:102F10000292029B002BF0D19DF80E30184604B0AF
:102F2000704710B487B001900B46ADF80230019C99
:102F3000BDF80230019AD4E85F0FC118C4E85C1FE5
:102F40006246ADF8160004910392039B002BEED16C
:102F5000049B9BB2184607B05DF8044B704710B451
:102F600087B001900091019C009B019A54E8000FEA
:102F7000C11844E8001C6246059004910392039B2B
:102F8000002BF0D1049B184607B05DF8044B704746
:102F900010B487B001900B46ADF80230019CBDF82B
:102FA0000230019AD4E85F0FC11AC4E85C1F624680
:102FB000ADF8160004910392039B002BEED1049B05
:102FC0009BB2184607B05DF8044B704710B487B049
:102FD00001900091019C009B019A54E8000FC11AD6
:102FE00044E8001C6246059004910392039B002B69
:102FF000F0D1049B184607B05DF8044B704784B0CD
:1030000001900B468DF8033001989DF80330019A2A
:10301000D0E84F1FC0E84C3F62468DF80F10029277
:103020009DF80F30184604B0704700B583B0734662
:10303000019000911A460099019800F005F80346A6
:10304000184603B05DF804FB00B587B00390029109
:103050000192002305930299039813F04DFC05900B
:10306000059B184607B05DF804FB00B587B00390D8
:103070000291019200230593019A0299039814F09A
:1030800099F80590059B184607B05DF804FB00B55C
:1030900083B07346019000911A460099019800F0A0
:1030A00004F800BF03B05DF804FB00B585B00390E1
:1030B000029101920299039813F0F0FA00BF05B053
:1030C0005DF804FB00B587B00390029101920023E4
:1030D0000593019A0299039813F05AFA0590059BFB
:1030E000184607B05DF804FB00B587B00590049161
:1030F0000392039B0093049B00220599014800F072
:103100007DFA00BF4401FF8082B00190019B1B68E3
:103110001F2B02D84FF0A04306E0019B1B6803F071
:103120001F02019B1A60024B184602B0704700BF95
:103130000003005000B585B0019001AB1846FFF7C1
:10314000E3FF0390019B012202FA03F3194603985F
:1031500000F018F800BF05B05DF804FB00B585B0BD
:10316000019001AB1846FFF7CFFF0390019B0122AE
:1031700002FA03F31946039800F00EF800BF05B0F9
:103180005DF804FB82B001900091019B009AC3F8A6
:10319000082500BF02B0704782B001900091019BEA
:1031A000009AC3F80C2500BF02B0704700B583B089
:1031B00001900091019B93F90030B3F1FF3F04D1DE
:1031C00020220C490C48FFF78FFF009B002B06D0F4
:1031D000019B93F900301846FFF7ACFF05E0019B17
:1031E00093F900301846FFF7B9FF00BF03B05DF850
:1031F00004FB00BFA0B90100E0B9010000B585B033
:1032000000F0A4F801AB16211846FEF77AFF002360
:10321000039312E001AB01211846FFF7C7FF1548E1
:1032200000F0A2FE01AB00211846FFF7BFFF1148D6
:1032300000F09AFE039B01330393039B032BE9DD0C
:103240000023029312E001AB01211846FFF7AEFF05
:10325000094800F089FE01AB00211846FFF7A6FFE0
:10326000054800F081FE029B01330293029B032B71
:10327000E9DDCCE7F0490200801A06000FB400B582
:1032800083B005AB01930199049800F007F800BFE3
:1032900003B05DF804EB04B07047000000B5A5B0C2
:1032A0000190009102A8009B019A842115F048FF2B
:1032B0002390239B832B06D9084A0DF187031068BE
:1032C000186012791A71239B002B03DD02AB18469C
:1032D00000F006F800BF25B05DF804FBF8B9010066
:1032E00000B583B0019000220199022000F062FC39
:1032F00000F02CF8019814F043F903461A4601999E
:10330000022000F057FC00F03BF800BF03B05DF86E
:1033100004FB82B0EFF310830193019B03F00103E0
:10332000002B0CBF01230023DBB2184602B070470C
:1033300082B0EFF305830193019B002B14BF01239F
:103340000023DBB2184602B07047000008B505F054
:10335000F5FB084B1B68B3F1FF3F04D1402206493F
:103360000648FFF7C1FE034B1B680133014A136097
:1033700000BF08BD780E002000BA010024BA010089
:1033800008B5094B1B68002B0BD0074B1B68013B92
:10339000054A1360044B1B68002B03D105F0DAFBD0
:1033A00000E000BF08BD00BF780E0020BFF34F8FC4
:1033B000054BDB6803F4E0620349044B1343CB6025
:1033C000BFF34F8F00BFFDE700ED00E00400FA05FA
:1033D00008B5FFF7EBFF000088B001900091194B92
:1033E000049300230793019B069324E0069B5A1C39
:1033F00006921B788DF80F309DF80F301B061A4689
:10340000079B53400793002305930EE0079B002B77
:1034100005DA079B5B00049A5340079302E0079B81
:103420005B000793059B01330593059B072BEDDD9F
:10343000009B013B0093009B002BD7DC079B1846A9
:1034400008B07047B71DC10408B50F48FFF750FD1D
:103450000346002B05D0FFF779FFBFF34F8F20BF46
:10346000FDE7FFF765FF0346002B07D1FFF751FF8C
:10347000034683F00103DBB2002B01D0FFF7BEFE51
:10348000012000F0FCFB00BF800E002030B597B09B
:103490000390029101920093039B002B01DB284BC8
:1034A000039305AB40220021184613F033FE039B23
:1034B00005931A9B0693029B0793224B5B69159316
:1034C000159B0893159BDB6B0993159B5B6B0A930C
:1034D000159B1B6B0B9305AB0C93FFF737FF1A4B38
:1034E0001B680133184A1360174B1B68012B0CD162
:1034F000164B1D4605AC0FCC0FC50FCC0FC50FCC1E
:103500000FC594E80F0085E80F00114B1D4605AC70
:103510000FCC0FC50FCC0FC50FCC0FC594E80F0013
:1035200085E80F000B4B1B68002B03D0094B1B6871
:1035300007489847FFF724FF0023184617B030BD0F
:103540000101FF8018030020840E0020880E002057
:10355000C80E0020080F002082B0019000BF02B00A
:103560007047000000B583B0002301931A4B1B681D
:10357000002B2BDA184B3C211846FFF72DFF01904A
:10358000154BDB6B019A9A4220D1134B9B6B002B9E
:103590001CD1124B01221A700F4B1846FFF7DCFFAB
:1035A0000D4B5B6B002B11DD0B4B01229A630A4B19
:1035B0003C211846FFF710FF0190074A019BD36397
:1035C000054B5B6B002B01DDFFF73EFF0023184628
:1035D00003B05DF804FB00BF800100200C0F002049
:1035E00082B0054B0193019B1B788DF803309DF849
:1035F0000330184602B070477C0E002010B58AB028
:1036000074460590049103920293304B0793012373
:103610008DF81B309DF81B3019460798FFF7EFFC1B
:103620000346002B14BF01230023DBB283F0010308
:10363000DBB2002B0DD0234600930C9B029A03991A
:103640000598FFF723FF0C9B029A0499204800F08D
:1036500055F8002309931F4B3C211846FFF7BCFE89
:1036600009901C4BDB6B099A9A4208D1194B5B6B92
:103670000893089B01331A46154B5A6302E0144B1A
:1036800001225A63124B00229A633C211048FFF733
:10369000A3FE02460E4BDA63FFF758FE0D4B4022A5
:1036A0000B49184613F034FCFFF76AFE0A48FFF78F
:1036B000E5FD084B5B6B002B05DD064B5B6B19468C
:1036C0000648FFF7DBFDFFF783FE00BF7C0E0020FE
:1036D000C80E00208001002074BA0100A8BA0100C1
:1036E00082B00190019B002B01D0019B00E0024BB6
:1036F000184602B0704700BFF4BA010030B58BB075
:103700000790069105920493079B1B685B1703F0D3
:103710000303032B03D1079B1B685B4202E0079B5B
:103720001B689BB20993079B1B681B14DBB20893B1
:10373000079B1968089B099A5948FFF79FFD099B49
:10374000A3F23113132B67D801A252F823F000BF64
:10375000A1370000AF370000BD370000CB370000B5
:10376000D9370000F5370000E737000003380000C4
:103770001938000019380000193800001938000005
:1037800019380000193800001938000019380000F5
:1037900019380000193800001938000011380000ED
:1037A000079B9B6819463F48FFF768FD35E0079B7C
:1037B0009B6819463C48FFF761FD2EE0079B9B681C
:1037C00019463A48FFF75AFD27E0079B9B681946C0
:1037D0003748FFF753FD20E0079B9B6819463548A3
:1037E000FFF74CFD19E0079B9B6819463248FFF72D
:1037F00045FD12E0079B9B6819463048FFF73EFDE8
:103800000BE0079B9B6819462D48FFF737FD04E046
:103810002C48FFF733FD00E000BF0698FFF760FD7E
:10382000079B5B6819462848FFF728FD059B002B7E
:1038300009D02648FFF754FD0598FFF751FD04997C
:103840002348FFF71BFD079B9B6819462148FFF79C
:1038500015FD079BDB685B681846FFF741FF0546CF
:10386000079BD868079B1C69079B5B69079A92694D
:103870000799C9690291019200932346024629469D
:103880001548FFF7FBFC079B1B6819461348FFF719
:10389000F5FC1348FFF7F2FC00BF0BB030BD00BFD2
:1038A00000BB010054BB01006CBB01007CBB0100EC
:1038B0008CBB0100A0BB0100B4BB0100C8BB010070
:1038C000D8BB0100F0BB010004BC010018BC010022
:1038D00020BC010024BC010038BC010090BC0100E8
:1038E000E0BC010008B5074B1B68002B07D0054B57
:1038F0001B684FF0FF31184603F010F800E000BFDE
:1039000008BD00BFB02D002008B5064B1B68002B7A
:1039100005D0044B1B68184603F02AF800E000BFEE
:1039200008BD00BFB02D002084B003900291019229
:103930006FF01C03184604B0704782B001906FF01E
:103940001503184602B0704782B001900123184653
:1039500002B0704782B001900023184602B0704751
:1039600000B585B0039001930B468DF80B301346DC
:103970008DF80A30039B1846FEF7FEF80C4A039BAD
:103980001A600C4B1B68002B0CD19DF90A209DF985
:103990000B301946084806F01FFD0199064806F04D
:1039A0008FFE00E000BF039B184605B05DF804FBE6
:1039B00098BE0100441800204818002000B587B0C8
:1039C000039002910192029B049300230593059AB0
:1039D000019B9A420BD2049A059B13441B7819460B
:1039E000054806F08DFF059B01330593EFE7019B2A
:1039F000184607B05DF804FB4818002000B587B0F2
:103A0000039002910192029B0593019B002B01D12F
:103A1000002307E0054806F0FDFE0346DAB2059BE9
:103A20001A700123184607B05DF804FB48180020FF
:103A300000B585B001900B46ADF802300023ADF81B
:103A40000E30BDF8023003F00103002B07D01748F9
:103A500006F0CEFF0346002B01D0012300E0002337
:103A6000002B05D0BDF80E3043F00103ADF80E3049
:103A7000BDF8023003F01003002B07D00B4806F00E
:103A8000EDFF0346002B01D0012300E00023002BB3
:103A900005D0BDF80E3043F01003ADF80E30BDF97F
:103AA0000E30184605B05DF804FB00BF4818002032
:103AB00082B001900023184602B0704782B0019096
:103AC0000023184602B0704708B5154B1B78BFF3AA
:103AD0005B8FDBB203F00103002B0CBF012300233B
:103AE000DBB2002B19D00E4800F0EAF80346002B99
:103AF00014BF01230023DBB2002B0ED04FF416536A
:103B0000132214210748FFF72BFF054800F024F982
:103B1000054A0649034800F0AAF8024B184608BDBA
:103B20001C0F0020180F0020000200200D3E000096
:103B300000B585B001900198FFF7C0FF0390039B8B
:103B4000002B01D0039B0CE00198FFF7B1FF03901D
:103B5000039B002B01D0039B03E0FFF7B5FF034657
:103B600000BF184605B05DF804FB000000B585B045
:103B70000190019B3F2B01DD002315E00C4A019BC6
:103B800052F823300393039BB3F1FF3F0BD1019B0A
:103B9000022B08DC0198FFF7CBFF03900449019B3F
:103BA000039A41F82320039B184605B05DF804FBF7
:103BB0001002002000B587B0039002910192039893
:103BC000FFF7D4FF0590059B002B07D112F010FDE5
:103BD0000246092313604FF0FF3315E0059B1B6875
:103BE0000C331B68019A0299059898470490049B2E
:103BF000002B08DA12F0FCFC0246049B5B421360C7
:103C00004FF0FF3300E0049B184607B05DF804FB5B
:103C100008B5012000F033F884B001900C4B1B680C
:103C200003930B4B1A68019B13440293094A029BAE
:103C3000934205D9084B0C221A604FF0FF3303E082
:103C4000034A029B1360039B184604B0704700BFF1
:103C50001003002000F80320E02E002000B583B000
:103C60000190019B002B01D0FFF7C8FAFEE784B05A
:103C70000390029101920123184604B0704700B5E9
:103C800083B001900198FFF7E9FF82B00190012312
:103C9000184602B0704700B583B00190019800F05B
:103CA00065FC00BF03B05DF804FB00B583B0019074
:103CB000019800F06BFC00BF03B05DF804FB00004E
:103CC00000B589B00190019B0793079B0593059B65
:103CD0001B788DF813309DF8133003F00303012B8C
:103CE0000CBF01230023DBB2002B01D000232AE00C
:103CF000FFF7F8FD079B1B788DF81B309DF81B30F4
:103D000003F00303012B03D1FFF7FEFD00231AE0AC
:103D10009DF81B3003F00303002B05D040F2E7525F
:103D20000B490C48FFF7E0F99DF81B3043F0020304
:103D3000DAB2079B039313468DF80B30039B9DF873
:103D40000B201A700123184609B05DF804FB00BF70
:103D500084BD0100ACBD010000B587B00190019B9E
:103D60000593059B1B788DF813309DF8133003F0F5
:103D70000303022B05D04FF4BE620E490E48FFF735
:103D8000B3F99DF9133023F003035BB243F0010351
:103D90005BB2DAB2059B039313468DF80B30039B9D
:103DA0009DF80B201A70FFF7AFFD00BF07B05DF85C
:103DB00004FB00BF84BD0100CCBD010000B587B08D
:103DC0000390039812F088FD03460593059B002B92
:103DD00007D1002300930023039A04490448FFF706
:103DE0000DFC059B184607B05DF804FB04BE0100FE
:103DF0001F01018000B583B001900091019812F07D
:103E000073FD00BF03B05DF804FB000000B583B094
:103E10000190064A019B1A60019B1846FDF76EFE51
:103E2000019B184603B05DF804FB00BF98BE01007B
:103E300000B583B001900198FFF7E8FF04210198D5
:103E4000FFF7D8FF019B184603B05DF804FB10B4E0
:103E50004FF000034FF00004184621465DF8044B74
:103E60007047000000B583B001210A48FFF759F8F8
:103E70000346002B09D1074B1B881A4600230093E9
:103E8000002305490548FFF7B9FB00BF03B05DF803
:103E900004FB00BF200F0020ECBE010023010480C2
:103EA00000B583B001210B48FFF772F803461A46AC
:103EB0004FF6FF739A4209D1064B1B881A4600231E
:103EC0000093002304490548FFF798FB00BF03B0A7
:103ED0005DF804FB200F002010BF010024010480C6
:103EE0002DE9F04F87B0FFF731FAFFF7B0FFCDE9CA
:103EF000040100238DF80F3006F00EFEFFF7A7FF38
:103F0000CDE900019DF80F30002B11D0DDE9001242
:103F1000DDE90434CE1A62EB0407114BD3E9003417
:103F200016EB030A47EB040B0D4BC3E900AB10E0A3
:103F3000DDE90001DDE90423841A61EB0305094B87
:103F4000D3E9002314EB020845EB0309054BC3E951
:103F50000089FFF715FA00BF07B0BDE8F08F00BF7A
:103F6000300F0020280F002000B585B00190FEF72B
:103F70000DFE03900398FEF7BDFD029000BF03986D
:103F8000FEF7B8FD0246029BD21A019B9A42F6D375
:103F900000BF05B05DF804FB00B587B00390039B3C
:103FA0001B684FF0FF31184602F0B8FC0590059BE6
:103FB000002B04D1039B1B6A5A1C039B1A62059BAE
:103FC000002B09D0FFF70CFB034683F00103DBB2A3
:103FD000002B01D0012300E00023002B07D0059A1D
:103FE00000230093002304490448FFF707FB002344
:103FF000184607B05DF804FB8CBF01001501028074
:1040000000B587B00390039B1B68184602F0B0FC14
:104010000590059B002B04D1039B1B6A5A1E039B32
:104020001A62059B002B09D0FFF7DAFA034683F0EA
:104030000103DBB2002B01D0012300E00023002BA1
:1040400007D0059A00230093002304490448FFF792
:10405000D5FA059B184607B05DF804FBA0BF010028
:104060001701028000B583B001900091019800F023
:1040700092F84FF6FF720099019800F005F8019B45
:10408000184603B05DF804FB00B589B003900291B7
:104090001346ADF8063004AB00221A605A609A60ED
:1040A000DA60039B0433069310230793BDF80630B0
:1040B000029904AA184602F0F7FE0246039B1A6012
:1040C000039B1B68002B04D12F2204490448FFF7EF
:1040D0000BF800BF09B05DF804FB00BFB4BF0100DE
:1040E000D4BF010000B587B003900291039B1B6809
:1040F0000299184602F006FF0590059B002B01D19E
:10410000012323E0059B13F1030F02D1029B002B37
:1041100007D0059B13F1020F05D1029BB3F1FF3FBE
:1041200001D0012300E000238DF813309DF81330F7
:1041300083F00103DBB2002B07D0059A0023009324
:10414000002304490448FFF759FA0023184607B032
:104150005DF804FBE0BF01001401028000B583B0EC
:104160000190019B1B68184602F0F4FE03461846B6
:1041700003B05DF804FB00B583B00190019B1B68A0
:10418000184602F009FF019800F00BF8019B184651
:1041900003B05DF804FB82B00190019B184602B0A9
:1041A000704782B00190019B184602B07047000032
:1041B00010B582B001900091019B00991846FDF75F
:1041C00021FC019800F060F9134A019B1A60019AE2
:1041D0004FF000034FF00004C2E90834019A4FF099
:1041E00000034FF00004C2E90A34019B9B691846A2
:1041F000FEF78BFC03460C46019AC2E90834019B8A
:10420000012283F83020019B002283F83120019B9A
:10421000184602B010BD00BF04C0010008B5044B31
:104220005B680449184604F00DF800BF08BD00BFE4
:1042300068C20100E14A000000B583B0019000911E
:10424000019B1846FDF73EFC019B002283F83020BD
:10425000019B012283F831200099019800F087F832
:1042600000BF03B05DF804FB82B00190019B93F89E
:104270003030184602B070472DE9F04786B0039001
:10428000039B1846FDF71EFC039B002283F8312098
:10429000039B012283F83020039B9B691846FEF79D
:1042A00034FC0A460146039BD3E90834CF1A62EB7B
:1042B00004084FF47A724FF000033846414616F076
:1042C0007BFF03460C46CDE90434DDE90434234387
:1042D00007D0DDE9043413F1FF3544F1FF36CDE9B1
:1042E0000456039BD3E90878DDE904120B46144613
:1042F0004FF000054FF00006660146EAD3665D0107
:104300002B4634465B1A64EB02044FF000054FF075
:104310000006A60046EA93769D002B4634465B18BD
:1043200042EB04044FF000014FF00002E20042EAC9
:104330005372D9000B461446FA18009248EB040356
:104340000193039BDDE90012C3E90812039BD3E943
:104350000A12DDE9043411EB030942EB040A039B62
:10436000C3E90A9A049B184606B0BDE8F087F0B589
:1043700083B001900091FEF7E9FF019F019BD3E913
:104380000812009B4FF47A7000FB03F34FF0000417
:10439000CD1842EB04062A4633463846FDF77EFB2D
:1043A000FEF7EEFF00BF03B0F0BD00B583B0019093
:1043B000019B1846FDF786FB00BF03B05DF804FBC8
:1043C00000B583B00190074A019B1A60019800F084
:1043D00061F8019B1846FDF74DFB019B184603B0A1
:1043E0005DF804FB04C0010000B583B001900198A2
:1043F000FFF7E6FF38210198FFF7FCFC019B184608
:1044000003B05DF804FB0000024B4FF080625A607D
:1044100000BF704700ED00E070B483B00190019BD5
:10442000D3E90A345D1C44F10006019BC3E90A5636
:10443000019BD3E9083413F57A7144F10002019B22
:10444000C3E9081200BF03B070BC704700B583B069
:104450000190FEF77BFF019B93F83130002B04D0D5
:10446000019B012283F8302008E0FFF7CDFF01987F
:10447000FFF7D2FF01210198FFF779FFFEF780FFD8
:1044800000BF03B05DF804FB82B00190019B1846A9
:1044900002B0704782B00190019B184602B070478D
:1044A00008B50A4B0A4A1A600A4A094BD31A0A4A43
:1044B00013600A4B0A4A1A600A4A094BD31A0A4A7D
:1044C000136000F071F800F08DF800BF980F002025
:1044D00000F80320000004209C0F0020100F002093
:1044E000E82E002000F80320140F002008B5144B1C
:1044F000144A1A60124B0B225A60114B1C22DA60CC
:104500000F4B114A9A600E4802F0E2F902460F4B37
:104510001A600F4B0F4A1A600D4B0B225A600C4B5E
:104520001C22DA600A4B0C4A9A60094802F0D0F962
:1045300002460A4B1A6012F0ABF900BF08BD00BF7B
:10454000580F002010C001003C0F0020380F002041
:10455000880F002020C001006C0F0020680F002091
:1045600008B511F05BFF0346184608BD00B583B0DF
:104570000190054B1B684FF0FF31184602F0CEF951
:1045800000BF03B05DF804FB380F002000B583B016
:104590000190044B1B68184602F0EAF900BF03B013
:1045A0005DF804FB380F002008B500F013F804F0A4
:1045B00079FF00F011F800BF08BD08B5FFF796FFBE
:1045C00000F006F8FEF7CEFFFFF7CAFF00BF08BDF8
:1045D00000BF704700BF704708B500F04FFF00BF35
:1045E00008BD000000B585B01F4B204A1A601E4B65
:1045F0000B225A601C4B1C22DA601B4B1C4A9A602F
:104600001C4B1D4A1A611B4B4FF480525A61194BC7
:104610004422DA60174B194A9A60164B18229A61A5
:10462000144B174A1A60104802F052F90246154B13
:104630001A60104A0021144803F0E2FC0390039B27
:10464000002B07D10B4A0023009300230F49104889
:10465000FEF7D4FF00F034FF002300930023002274
:104660000C490B48FEF7CAFFD02D00202CC00100DA
:10467000B42D0020E02D0020B01D0020A00F002050
:104680003CC00100B02D0020BB45000044C001002B
:104690001D01018060C0010000B583B00190064B90
:1046A0001B68002B03D0044B1B680198984700BF80
:1046B00003B05DF804FB00BFE40F002000B583B039
:1046C000019000F0B1F9000000B585B003900291AF
:1046D000039B013B042B35D801A252F823F000BF05
:1046E000F54600000547000015470000254700007B
:1046F00035470000002300930023039A154916480C
:10470000FEF77CFF002300930023039A134914480B
:10471000FEF774FF002300930023039A1149124807
:10472000FEF76CFF002300930023039A0F49104803
:10473000FEF764FF002300930023039A0D490E48FF
:10474000FEF75CFF002300930023039A0B490C48FB
:10475000FEF754FF78C00100250102809CC00100D3
:1047600026010280C4C0010027010280FCC00100B4
:104770002801028038C101002A01028078C10100AD
:104780000001028082B00190019B0633052B1BD8EB
:1047900001A252F823F000BFC5470000C147000046
:1047A000BD470000B9470000B5470000B147000011
:1047B000074B0AE0074B08E0074B06E0074B04E015
:1047C000074B02E0074B00E0074B184602B070476A
:1047D00094C10100ACC10100E0C10100F8C10100B9
:1047E00008C2010020C201003CC2010000B587B030
:1047F000059004910392FEF7F3FE0346002B0AD1C5
:104800000498FFF7BFFF0146002300930023059A99
:104810000398FEF7F3FE00BF07B05DF804FB00004D
:1048200000B583B00190019B044A01991846FFF737
:10483000DDFF00BF03B05DF804FB00BF3101018064
:1048400000B583B001900091019B044A009918467D
:10485000FFF7CCFF00BF03B05DF804FB320101801D
:1048600000B583B001900091019B044A009918465D
:10487000FFF7BCFF00BF03B05DF804FB3701018008
:1048800000B583B001900091019B044A009918463D
:10489000FFF7ACFF00BF03B05DF804FB33010180FC
:1048A00000B583B001900091009B13F1110F06D069
:1048B000019B054A00991846FFF798FF00E000BFEA
:1048C00003B05DF804FB00BF3401018000B583B084
:1048D00001900091019B044A00991846FFF786FF5A
:1048E00000BF03B05DF804FB3801018000B583B060
:1048F00003F0B6FB01900198FFF7CEFE00BF03B0B6
:104900005DF804FB08B5FFF7EBFA00BF08BD000037
:1049100038B50E4B1B68002B0FD1FDF715FC054673
:104920000B493820FCF7CCFD044629462046FFF70A
:104930003FFC064B1C60FFF771FC044B1B68012118
:104940001846FFF714FD00BF38BD00BFE80F002078
:10495000F00F002008B5034B1B681846FFF725FD34
:1049600000BF08BDE80F002000BF70474FF0FF33C5
:104970001846704700B583B000F0C2FD0190019B5E
:10498000002B0CBF012300238DF802309DF802306C
:10499000002B01D0FFF766FA214B1B6801991846DE
:1049A000FFF74AFC00238DF803301D4B1B681846A7
:1049B000FFF75AFC034683F00103DBB2002B08D05B
:1049C0009DF8033083F00103DBB2002B01D00123FB
:1049D00000E00023002B10D0FEF7B8FC114B9B7AAF
:1049E000002B03D001238DF8033001E0FFF78AFF8D
:1049F000FEF7C6FCBFF36F8FD7E79DF80230002BA0
:104A000001D0FFF74DFA064B1B681846FFF734FC40
:104A10000346184600F094FD00BF03B05DF804FBA8
:104A2000E80F00201803002008B5024B1B689847C8
:104A3000FBE700BF140300201EF0040F0CBFEFF3D0
:104A40000880EFF30980816911F8021C91BB01B560
:104A500090E80F10E047BDE800508CE80300244BBD
:104A600093E80600914208BF704741B91EF0100F4D
:104A700010D12049086820F0010008600AE02CE904
:104A8000F00F1EF0100F08BF2CED108AC1F838C0CF
:104A900081F822E01A6092F82210906B61F0FF0E0C
:104AA0001EF0100F08BFB0EC108AB0E8F00F80F3D2
:104AB00009887047104A13689942FAD801B552F82C
:104AC00021C00FC8E047BDE80050CCF80000704797
:104AD00001B502F0C9FBBDE80140EFF3098CBEE768
:104AE00001B502F05FFBBDE80140EFF3098CB6E7CA
:104AF0002C03002034EF00E068C3010082B0EFF324
:104B000005830193019B002B14BF01230023DBB21B
:104B1000184602B0704782B0EFF310830193019BF7
:104B2000002B05D1EFF311830093009B002B01D0E4
:104B3000012300E0002303F00103DBB2184602B0BA
:104B4000704710B483B001900091019B009A53E824
:104B5000001F01EA0200904203D0BFF32F8F002113
:104B600005E021EA020043E8000404B1EFE70C4647
:104B70002346184603B05DF8044B704710B483B069
:104B800001900091019B009A53E8001F114203D14C
:104B9000BFF32F8F002105E021EA020043E8000463
:104BA00004B1F1E70C462346184603B05DF8044B08
:104BB000704782B00190019B184602B0704782B0E6
:104BC0000190019B184602B0704700B587B0039072
:104BD00002910192019B03F00203002B14D1019B6F
:104BE00003F00103002B07D0039B0C3302991846F6
:104BF000FFF7A7FF059021E0039B0C3302991846AD
:104C0000FFF7BCFF059019E0039BDB680593019B50
:104C100003F00103002B05D0059A029B1340029A72
:104C20009A4209D1019B03F00103002B06D1059A9A
:104C3000029B1340002B01D100230593059B1846CE
:104C400007B05DF804FB00B587B00190019B9B683D
:104C5000059319E0059B9B680493059B596A059B86
:104C600093F823301A460198FFF7AFFF0390039B98
:104C7000002B07D0059802F0BFFC0022039905988D
:104C800002F08EFE049B0593059B002BE2D100BF32
:104C900007B05DF804FB000000B587B00190019BF0
:104CA000002B23D0019B1B680393019B9B680593FA
:104CB000059B002B0FD0059B03F00303002B03D1B2
:104CC000019BDB680F2B15D86FF008010020FFF760
:104CD000C7FD00234BE0019BDB68002B0AD06FF07F
:104CE00008010020FFF7BCFD002340E000230393F0
:104CF00000230593059B002B19D11F4BD3F890304F
:104D0000002B07D01C4BD3F89030184600F007FE5C
:104D1000059008E0184BD3F8803001221021184686
:104D200000F099FC059001238DF8133002E0002378
:104D30008DF81330059B002B13D0059BF3221A70BE
:104D4000059B9DF813209A70059B039A5A60059B5A
:104D500000229A60059B0022DA60074B074A5A66D8
:104D600004E06FF004010020FFF77AFD059B184670
:104D700007B05DF804FB00BF18030020474C00009B
:104D800000B585B001900198FFF713FF0390039BD6
:104D9000002B03D0039B1B78F32B07D06FF003018C
:104DA0000398FFF75DFD6FF0030336E0039B9B68FC
:104DB000002B14D00398FFF702FF0346184602F0B9
:104DC000DDFB029000226FF00201029802F0E8FD84
:104DD000039B9B68002BEDD1002002F09BFD039B01
:104DE00000221A70039B9B7803F00103002B13D061
:104DF0000C4BD3F89030002B07D00A4BD3F89030EF
:104E00000399184600F0A6FD06E0064BD3F8803063
:104E10000399184600F0A9FC0023184605B05DF878
:104E200004FB00BF1803002000B585B00190FFF718
:104E300065FE0346002B04D1FFF76DFE0346002BF1
:104E400007D06FF005010020FFF70AFD0023039350
:104E500008E0019B0293029B1846054B9C4600DF2D
:104E600003460393039B184605B05DF804FB00BF9F
:104E7000994C000000B585B00190FFF73FFE034656
:104E8000002B04D1FFF747FE0346002B08D06FF03C
:104E900005010198FFF7E4FC6FF00503039308E0B8
:104EA000019B0293029B1846044B9C4600DF03467D
:104EB0000393039B184605B05DF804FB814D000089
:104EC000034BDB681B0A03F007031846704700BF5B
:104ED00000ED00E082B0EFF305830193019B002B0E
:104EE00014BF01230023DBB2184602B0704782B022
:104EF000EFF310830193019B002B05D1EFF3118396
:104F00000093009B002B01D0012300E0002303F05D
:104F10000103DBB2184602B07047000000B585B04F
:104F2000154BFF2283F82220134B93F82230DBB27B
:104F300063F0FF03DB430193019B002B01D120238E
:104F400003E0019BB3FA83F3DBB2C3F120030393C5
:104F5000FFF7B6FF0290029A039B9A4202D3029B8C
:104F600001330393FE22039B9A40034BD2B2DA77BC
:104F700000BF05B05DF804FB00ED00E0044B5B688A
:104F80001B0EDBB203F01003DBB21846704700BF04
:104F900000ED00E0024B4FF000625A6000BF704726
:104FA00000ED00E0024B4FF080525A6000BF7047A6
:104FB00000ED00E008B5FFF7CDFC084B01225A7266
:104FC000BFF34F8FFFF7DAFF0346002B04D0FFF744
:104FD000E1FF024B01229A7200BF08BD18030020B6
:104FE00008B5094B00225A72BFF34F8F064B9B7ACC
:104FF000002B04D0044B00229A72FFF7D3FFFFF777
:1050000087FC00BF08BD00BF1803002008B5944B03
:105010001B7A012B01D100231FE1914B1B7A002B3E
:1050200006D04FF0FF30FFF7FBFB4FF0FF3314E1EA
:105030009C2200218B4812F06DF88B4BDB68884A6C
:10504000D365894B1A8A864BA3F85420864B9B68FC
:10505000834A1364844BDA6A834B1B6B19461046F0
:1050600000F0BBFA0346002B04D07F4BDB6A7C4A7E
:10507000C2F880307C4B5A697B4B9B6919461046BD
:1050800000F0ABFA0346002B04D0774B5B69744AFF
:10509000536704E0724BD3F88030714A5367724B08
:1050A000DA69714B1B6A1946104600F096FA0346FE
:1050B000002B04D06C4BDB69694A936704E0684BB2
:1050C000D3F88030664A9367674B5A6A664B9B6A8F
:1050D0001946104600F081FA0346002B04D0624BBB
:1050E0005B6A5F4AD36704E05D4BD3F880305C4A6B
:1050F000D3675D4B5B6B002B11D05B4B586B5A4BEE
:105100005B6B1968584B5B6B9A68574B5B6BDB6842
:1051100000F0C2FB544B5B6B514AC2F88430524BD7
:105120009B6B002B11D0504B986B4F4B9B6B1968AE
:105130004D4B9B6B9A684C4B9B6BDB6800F0ACFB58
:10514000494B9B6B464AC2F88830474BDB6B002BC0
:1051500011D0454BD86B444BDB6B1968424BDB6B72
:105160009A68414BDB6BDB6800F096FB3E4BDB6BD8
:105170003B4AC2F88C303C4B1B6C002B11D03A4B95
:10518000186C394B1B6C1968374B1B6C9A68364B83
:105190001B6CDB6800F080FB334B1B6C304AC2F8A1
:1051A0009030314B5B6C002B11D02F4B586C2E4B39
:1051B0005B6C19682C4B5B6C9A682B4B5B6CDB68E7
:1051C00000F06AFB284B5B6C254AC2F89430264BF2
:1051D0009B6C002B11D0244B986C234B9B6C196853
:1051E000214B9B6C9A68204B9B6CDB6800F054FB56
:1051F0001D4B9B6C1A4AC2F898301B4BDB6C002B82
:1052000011D0194BD86C184BDB6C1968164BDB6C42
:105210009A68154BDB6CDB6800F03EFB124BDB6CD5
:105220000F4AC2F89C30104B1B6D002B11D00E4B57
:10523000186D0D4B1B6D19680B4B1B6D9A680A4B53
:105240001B6DDB6800F028FB074B1B6D044AC2F89E
:10525000A030034B01221A720023184608BD00BF7C
:10526000180300202003002068C2010000B585B0AB
:10527000294B1B7A012B06D06FF00600FFF7D0FAFE
:105280004FF0FF3343E002F081FE034683F0010359
:10529000DBB2002B06D04FF0FF30FFF7C1FA4FF022
:1052A000FF3334E0FFF73AFE1C4B5B681C4918469D
:1052B00002F0C8FF0346002B06D04FF0FF30FFF787
:1052C000AFFA4FF0FF3322E0FFF750FB0246124BDC
:1052D0001A61FFF71DFB134802F050F90390039881
:1052E00002F006FB0D4B1B6803F00103002B05D0F9
:1052F00002230293029B83F3148804E003230193A7
:10530000019B83F31488044B02221A72002318466F
:1053100005B05DF804FB00BF1803002068C201005F
:10532000E14A00003403002000B585B0164B1B7A1B
:10533000022B05D06FF00700FFF772FA00231FE081
:10534000FFF738FE4FF0FF3303930F4BDB6A0293F6
:10535000029B002B02D0029BDB6903930A4B5B6C20
:105360000193019B002B07D0019B1B69039A9A4272
:1053700002D9019B1B690393034B04221A72039BFE
:10538000184605B05DF804FB1803002000B587B08F
:105390000190354B1B7A042B61D1334BDA68019BAA
:1053A0001344314AD360304BDB6A0593059B002BD5
:1053B00022D0019B0393059BDB69039A9A420DD38C
:1053C000059BDB69039AD31A0393059B0122DA61DB
:1053D00002F0ECF9244BDB6A059307E0059BDA69E0
:1053E000039BD21A059BDA6100230393059B002BD4
:1053F00002D0039B002BDED11B4B5B6C0493049B00
:10540000002B23D0019B0293049B1B69029A9A42B2
:105410000ED3049B1B69029AD31A0293049B0122A8
:105420001A61114B1B6D98470F4B5B6C049307E09F
:10543000049B1A69029BD21A049B1A6100230293EF
:10544000049B002B02D0029B002BDDD1064B0222D5
:105450001A72002002F05EFAFFF7C2FD00E000BF02
:1054600007B05DF804FB00BF18030020014BDB68A8
:10547000184670471803002000BF704700B583B07E
:10548000FFF7FAFFFFF726FD0346002B04D1FFF7D5
:105490002EFD0346002B07D06FF00500FFF7C0F983
:1054A0006FF00503019304E0044B9C4600DF0346C4
:1054B0000193019B184603B05DF804FB0D500000FA
:1054C00000B583B0FFF706FD0346002B04D1FFF7BC
:1054D0000EFD0346002B07D06FF00500FFF7A0F983
:1054E0006FF00503019304E0044B9C4600DF034684
:1054F0000193019B184603B05DF804FB6D52000058
:1055000000B583B0FFF7E6FC0346002B04D1FFF79C
:10551000EEFC0346002B06D06FF00500FFF780F984
:105520000023019304E0054B9C4600DF03460193F2
:10553000019B184603B05DF804FB00BF295300002F
:1055400000B585B00190FFF7C5FC0346002B04D1E0
:10555000FFF7CDFC0346002B04D06FF00500FFF7EA
:105560005FF905E0019B03930398034B9C4600DF22
:1055700000BF05B05DF804FB8D53000000B583B09B
:10558000FFF7A8FC0346002B04D1FFF7B0FC03464D
:10559000002B03D0FFF76AFF019004E0044B9C4608
:1055A00000DF03460193019B184603B05DF804FB3E
:1055B0006D54000082B00190019B184602B0704704
:1055C00084B001900091019B009A13440393039BC4
:1055D0000293029B184604B0704700B585B0019055
:1055E0000091019B002B0CD0019B03F00703002BC3
:1055F00007D1009B03F00703002B02D1009B172B60
:1056000001D8002323E00198FFF7D4FF0390039B08
:10561000009A1A60039B10225A6008210198FFF734
:10562000CFFF0290009B083B19460198FFF7C8FF87
:105630000246029B1A60029B1B6800221A60029BB2
:105640001B6810225A60029B00225A6001231846F0
:1056500005B05DF804FB10B58AB003900291019289
:10566000039B002B07D0029B002B04D0019B23F04F
:105670000303002B01D0002374E0029B083307933F
:10568000079B073323F00703079308210398FFF7CD
:1056900097FF0890089B1B681A46089BD31A06932D
:1056A000089B5B6823F00303069AD31A0693069AB5
:1056B000079B9A4208D2089B1B680893089B1B68AB
:1056C000002BE7D100234DE000BF0398FFF772FFE6
:1056D00003465968079A0A445A600398FFF76AFF1D
:1056E00003461B68083B19460398FFF769FF0590BE
:1056F000059B5C680398FFF75DFF03465B689C426F
:1057000006D20398FFF756FF03465A68059B5A6076
:10571000089B5B68002B0AD1079A019B1A43089BE0
:105720005A6008210898FFF74BFF099019E0089B81
:105730005B6823F0030319460898FFF741FF0590C3
:10574000089B1A68059B1A60079A019B1A43059BE0
:105750005A60089B059A1A6008210598FFF730FFE8
:105760000990099B18460AB010BD00B587B001909A
:105770000091019B002B02D0009B002B01D1002344
:1057800034E000210098FFF71BFF0390039B083BC8
:1057900003930023049308210198FFF711FF05905C
:1057A00009E0059B0493059B1B680593059B002B53
:1057B00001D100231AE0059A039B9A42F1D1019886
:1057C000FFF7F8FE03465968059A526822F0030273
:1057D0008A1A5A60049B002B03D1059B00225A6051
:1057E00003E0059B1A68049B1A600123184607B062
:1057F0005DF804FB10B483B00190019B53E8002FC7
:10580000511C43E8001000B1F8E71446234618463F
:1058100003B05DF8044B704710B483B00190019B56
:1058200053E8002F511E43E8001000B1F8E714467A
:105830002346184603B05DF8044B704710B483B09C
:105840000190019B53E8002F12B9BFF32F8F04E0A2
:10585000116843E8001000B1F4E7144623461846E7
:1058600003B05DF8044B704710B483B00190009111
:10587000019B009A19681160BFF35F8F53E8001F06
:1058800010688842F6D143E8002404B1F2E700BF73
:1058900003B05DF8044B704786B00390029101920B
:1058A0000093039B002B08D0029B002B05D0019B8B
:1058B000002B02D0009B002B01D100232CE0039B86
:1058C000029A1A60039B00225A60039B019A9A6015
:1058D000039B009ADA60039B009A5A61029B019A2B
:1058E00002FB03F3009A1A44039B1A61009B059381
:1058F00008E0059A019B13440493059B049A1A60DF
:10590000049B0593029B013B0293029B002BF0D169
:10591000059B00221A600123184606B0704700B5A7
:1059200085B00190019B002B01D100230EE0019B6B
:1059300014331846FFF782FF0390039B002B04D01B
:10594000019B04331846FFF755FF039B184605B02B
:105950005DF804FB00B583B001900091019B002B22
:1059600009D0019BDB68009A9A4204D3019B1B6912
:10597000009A9A4202D36FF003030BE0019B1433A9
:1059800000991846FFF770FF019B04331846FFF794
:1059900043FF0023184603B05DF804FB82B0EFF329
:1059A00005830193019B002B14BF01230023DBB26D
:1059B000184602B0704782B0EFF310830193019B49
:1059C000002B05D1EFF311830093009B002B01D036
:1059D000012300E0002303F00103DBB2184602B00C
:1059E000704710B483B001900B468DF80330019BD3
:1059F0009DF80320D3E84F1FC3E8402F00B1F9E71B
:105A0000CCB22346184603B05DF8044B704710B47F
:105A100083B00190019B53E8002F511C43E8001014
:105A200000B1F8E714462346184603B05DF8044B6E
:105A3000704710B483B00190019B53E8002F12B956
:105A4000BFF32F8F04E0511E43E8001000B1F4E7CC
:105A500014462346184603B05DF8044B704782B0E5
:105A60000190019B184602B0704782B00190019BE3
:105A7000184602B070470000014B5B69184670473A
:105A80001803002000B585B001900091019B1B6BAD
:105A9000002B2ED0019B1B6B03930023029304E089
:105AA000039B0293039B5B680393039B002B05D02E
:105AB000039BDA78009BDB789A42F1D3009B039A30
:105AC0005A60009B029A9A60039B002B03D0039BB1
:105AD000009A9A6002E0019B009ADA62029B002B16
:105AE00003D0029B009A5A600FE0019B009A1A6350
:105AF0000BE0009B00225A60009B00229A60019BF1
:105B0000009ADA62019B009A1A63019B28331846B7
:105B1000FFF77DFF00BF05B05DF804FB00B587B05F
:105B20000190019B28331846FFF783FF0490049BE4
:105B3000002B17D0019BDB6A05930FE0059B023316
:105B400001211846FFF74DFF03468DF80F309DF8F1
:105B50000F30002B09D0059B9B680593059B002BFC
:105B6000ECD103E00023059300E000BF059B18463D
:105B700007B05DF804FB82B001900091009B5B6868
:105B8000002B05D0009B5B68009A92689A6003E046
:105B9000009B9A68019BDA62009B9B68002B05D0F2
:105BA000009B9B68009A52685A6003E0009B5A6809
:105BB000019B1A6300BF02B0704700B589B0019025
:105BC000019B9B78002B4BD0019BDB6807930199CD
:105BD0000798FFF7D0FF019B00221A70079B0C3338
:105BE00001991846FFF7B6FE079B9B68002B7FD0F4
:105BF000079B0C331846FFF792FE0690069B002B7E
:105C000076D00798FFF731FF0346184601F0B6FC3F
:105C1000059000220021059801F0C2FE059801F0D0
:105C20001FFE0490049B08331B680393069B03F13B
:105C30000C00079B5B6A1A46039911F069F9069BF1
:105C4000F9221A70069B00229A70049B0C331B6881
:105C5000DAB2069BDA7006990798FFF713FF47E060
:105C6000019B9B680793019B5B680393079B9B6861
:105C7000002B39D0079B9B685B78832B34D1079826
:105C8000FFF7F3FE0346184601F078FC059000226A
:105C90000021059801F084FE059801F0E1FD0490D3
:105CA000049B08331B680293019B03F10C01079BC3
:105CB0005B6A1A46029811F02BF9049B0C331B689F
:105CC000002B06D0049B0C331B681A46019BDB7823
:105CD0001370019B00221A70079B0C330199184620
:105CE000FFF738FE00BF03E001990798FFF7CAFEEF
:105CF00000BF09B05DF804FB00B58FB003900291BE
:105D00000192039B002B02D0029B002B06D16FF067
:105D100003010020FEF7DAFD002302E1029B0333BA
:105D200023F003030C330993039B0593059B002B7E
:105D300001D1202303E0059BB3FA83F3DBB21A46BB
:105D4000099B0693069B002B01D1202303E0069BB1
:105D5000B3FA83F3DBB213441F2B06D86FF00301B1
:105D60000020FEF7B3FD0023DBE0039B099A02FB52
:105D700003F30893019B002B46D0019B1B680A93F9
:105D8000019B9B680D93019B1B690C93019B5B69B5
:105D900007930D9B002B0FD00D9B03F00303002BEB
:105DA00003D1019BDB68332B11D86FF00801002071
:105DB000FEF78CFD0023B4E0019BDB68002B06D0CE
:105DC0006FF008010020FEF781FD0023A9E00C9B85
:105DD000002B0FD00C9B03F00303002B03D1079A79
:105DE000089B9A4216D26FF009010020FEF76EFD63
:105DF000002396E0079B002B0CD06FF009010020D8
:105E0000FEF764FD00238CE000230A9300230D932A
:105E100000230C930D9B002B19D1444BD3F8A030D9
:105E2000002B07D0414BD3F8A0301846FFF777FD81
:105E30000D9008E03D4BD3F8803001223421184604
:105E4000FFF709FC0D9001238DF82F3002E00023AD
:105E50008DF82F300D9B002B35D00C9B002B32D1B1
:105E6000324BDB6F002208991846FFF7F4FB0C90C9
:105E70000C9B002B1CD19DF82F3003F00103002B4D
:105E800013D02A4BD3F8A030002B07D0274BD3F8E0
:105E9000A0300D991846FFF75DFD06E0234BD3F8BF
:105EA00080300D991846FFF760FC00230D9304E045
:105EB000089A00210C9811F02DF99DF82F3043F02D
:105EC00002038DF82F300D9B002B24D00D9BFA225E
:105ED0001A700D9B9DF82F209A700D9B0A9A5A609C
:105EE0000D9B00229A600D9B029A5A620D9B002224
:105EF0009A620D9B0022DA620D9B00221A630D9BB1
:105F000003F10C000C9B099A0399FFF7C5FC074BA2
:105F1000074A1A6704E06FF004010020FEF7D6FC80
:105F20000D9B18460FB05DF804FB00BF180300205E
:105F3000BB5B000010B58CB0039002910093134638
:105F40008DF807300398FFF78AFD0A900A9B002B13
:105F500006D00A9B1B78FA2B02D1029B002B07D19B
:105F60006FF003010A98FEF7B1FC6FF0030381E0C4
:105F70000A9B9B68002B2FD00A9B9B685B78832B26
:105F80002AD10A98FFF771FD0346184601F0F6FA88
:105F9000099001220021099801F002FD099801F001
:105FA0005FFC0890089B08331B6807930A9B5B6A99
:105FB0001A460299079810F0ABFF089B0C331B6838
:105FC000002B06D0089B0C331B681A469DF807303F
:105FD000137000230B934CE00A9B0C331846FFF719
:105FE0009EFC0690069B002B19D0069B03F10C002B
:105FF0000A9B5B6A1A46029910F08AFF069BF922F7
:106000001A70069B00229A70069B9DF80720DA7092
:1060100006990A98FFF736FD00230B9329E0009BB1
:10602000002B23D00099932001F0DAFC0346002BCB
:1060300018D00A98FFF719FD0446FFF71DFD034627
:106040001946204601F068FAEFF309830593059B92
:106050000893089B0833029A1A60089B0C339DF83A
:1060600007201A606FF001030B9302E06FF0020348
:106070000B930B9B18460CB010BD10B58CB0039061
:106080000291019200930398FFF7E9FC0A900A9BA2
:10609000002B06D00A9B1B78FA2B02D1029B002B07
:1060A00007D16FF003010A98FEF710FC6FF00303AD
:1060B0008BE00A98FFF732FD0990099B002B5AD01C
:1060C00009990A98FFF757FD099B03F10C010A9BF8
:1060D0005B6A1A46029810F01BFF019B002B03D04D
:1060E000099BDA78019B1A70099B00221A700A9B9F
:1060F0000C3309991846FFF72DFC0A9B9B68002B6F
:1061000036D00A9B0C331846FFF709FC0990099B0F
:10611000002B2DD00A98FFF7A8FC0346184601F083
:106120002DFA089001220021089801F039FC089806
:1061300001F096FB0790079B08331B680693099BA9
:1061400003F10C000A9B5B6A1A46069910F0E0FE08
:10615000099BF9221A70099B00229A70079B0C3345
:106160001B68DAB2099BDA7009990A98FFF78AFC72
:1061700000230B9328E0009B002B22D00099832062
:1061800001F02EFC0346002B17D00A98FFF76DFC98
:106190000446FFF771FC03461946204601F0BCF99E
:1061A000EFF309830593059B0793079B0833029A36
:1061B0001A60079B0C33019A1A606FF001030B936E
:1061C00002E06FF002030B930B9B18460CB010BD5E
:1061D00000B589B003900291009313468DF8073003
:1061E0000398FFF73CFC0690069B002B09D0069B0A
:1061F0001B78FA2B05D1029B002B02D0009B002BB1
:1062000007D06FF003010698FEF760FB6FF0030301
:1062100031E0069B0C331846FFF781FB0590059B88
:10622000002B24D0059B03F10C00069B5B6A1A46E9
:10623000029910F06DFE059BF9221A70059B002251
:106240009A70059B9DF80720DA70059B0433029A2B
:106250001A60059B0833069A1A600598FFF705FC3B
:106260000346184601F05AF80023079302E06FF046
:1062700002030793079B184609B05DF804FB00B5BD
:1062800089B003900291019200930398FFF7E7FB16
:106290000690069B002B09D0069B1B78FA2B05D194
:1062A000029B002B02D0009B002B07D06FF0030154
:1062B0000698FEF70BFB6FF0030328E00698FFF744
:1062C0002DFC0590059B002B1DD0059B03F10C01B7
:1062D000069B5B6A1A46029810F01AFE019B002B7F
:1062E00003D0059BDA78019B1A70059B0C33069A44
:1062F0001A600598FFF7B9FB0346184601F00EF83F
:106300000023079302E06FF002030793079B1846F0
:1063100009B05DF804FB000000B589B0039002915C
:106320000192FFF73BFB0346002B04D1FFF743FB31
:106330000346002B07D06FF005010020FEF7C6FAD8
:10634000002307930EE0039B0693029B0593019B9A
:10635000049306980599049B1A46054B9C4600DF5A
:1063600003460793079B184609B05DF804FB00BF7E
:10637000F95C000010B58AB00390029100931346B7
:106380008DF80730FFF70AFB0346002B04D1FFF717
:1063900012FB0346002B08D09DF80720009B0299B2
:1063A0000398FFF715FF099016E0039B0893029BE3
:1063B00007939DF807308DF81B30009B0593089BD1
:1063C0001846079B19469DF81B301A46059B044C3E
:1063D000A44600DF03460993099B18460AB010BD86
:1063E000355F000010B58AB00390029101920093CE
:1063F000FFF7D4FA0346002B04D1FFF7DCFA03467B
:10640000002B07D0009B019A02990398FFF737FFF2
:10641000099013E0039B0893029B0793019B06934B
:10642000009B0593089B1846079B1946069B1A4636
:10643000059B044CA44600DF03460993099B1846BC
:106440000AB010BD7B60000082B0EFF305830193BA
:10645000019B002B14BF01230023DBB2184602B0BE
:10646000704782B0EFF310830193019B002B05D19D
:10647000EFF311830093009B002B01D0012300E078
:10648000002303F00103DBB2184602B0704782B06C
:106490000190019B184602B0704782B00190019BA9
:1064A000184602B070470000014B5B691846704700
:1064B0001803002000B587B00190019B05932EE0E2
:1064C000059B5B690493059BDB7803F00803002BB5
:1064D00023D0059B00221A76059B9B68002B1CD0BD
:1064E0000598FFF7DAFF0346184601F047F80390D6
:1064F00000220021039801F053FA059B039ADA6009
:10650000039BDA6A059B5A61059B00221A61039B73
:10651000059ADA62059B01221A76049B0593059B76
:10652000002BCDD100BF07B05DF804FB00B587B0EC
:106530000190019B002B26D0019B1B680293019BBD
:106540005B680493019B9B680593059B002B0FD010
:10655000059B03F00303002B03D1019BDB681B2B7E
:1065600017D86FF008010020FEF78AF9002357E0E2
:10657000019BDB68002B0CD06FF008010020FEF7B8
:106580007FF900234CE000230293002304930023AF
:106590000593059B002B19D1234BD3F89430002B86
:1065A00007D0214BD3F894301846FFF7B8F905907F
:1065B00008E01D4BD3F8803001221C211846FFF75C
:1065C0004AF8059001238DF80F3002E000238DF882
:1065D0000F30059B002B1DD0059BF5221A70059BE3
:1065E0009DF80F209A70049BDAB2059BDA70059B28
:1065F000029A5A60059B00229A60059B0022DA608D
:10660000059B00221A61059B00225A61059B00220E
:106610001A7604E06FF004010020FEF731F9059BC3
:10662000184607B05DF804FB1803002000B587B0DA
:10663000019000910198FFF72AFF0490FFF734FFC3
:106640000390039B002B07D16FF007010498FEF71E
:1066500017F94FF0FF3383E0049B002B03D0049B1A
:106660001B78F52B07D06FF003010498FEF708F9AB
:106670006FF0030374E0049B1B7E002B1AD1049B74
:10668000039ADA60039BDA6A049B5A61049B002236
:106690001A61039BDB6A002B03D0039BDB6A049A1D
:1066A0001A61039B049ADA62049B01221A76002382
:1066B000059354E0049BDB7803F00103002B1AD010
:1066C000049BDB68039A9A4215D1049B1B7EFF2B27
:1066D00008D16FF00F010498FEF7D2F86FF00203B3
:1066E00005933CE0049B1B7E0133DAB2049B1A76CF
:1066F0000023059333E0009B002B2DD0049BDB7817
:1067000003F00203002B14D0049BDB6893F92020D4
:10671000039B93F920309A420BDA049BDB68039ABF
:1067200092F9202083F82020049BDB68184600F0B3
:1067300041FF0099532001F053F90346002B07D085
:106740000498FFF7AAFE03460399184600F0E4FEFA
:106750006FF00103059302E06FF002030593059BC0
:10676000184607B05DF804FB00B587B001900198AA
:10677000FFF78DFE0390FFF797FE0290029B002B20
:1067800007D16FF007010398FEF77AF84FF0FF3357
:1067900099E0039B002B03D0039B1B78F52B07D0BC
:1067A0006FF003010398FEF76BF86FF003038AE0C4
:1067B000039B1B7E002B07D16FF00E010398FEF7A1
:1067C0005FF86FF002037EE0039BDB68029A9A4257
:1067D00007D06FF00D010398FEF752F86FF0020337
:1067E00071E0039B1B7E013BDAB2039B1A76039B8D
:1067F0001B7E002B66D1039B5B69002B04D0039B9F
:106800005B69039A12691A61039B1B69002B05D00F
:10681000039B1B69039A52695A6103E0039B5A69FF
:10682000029BDA62039BDB7803F00203002B25D086
:10683000029B93F821308DF81330029BDB6A05939D
:1068400014E0059B9B68002B0DD0059B9B6893F97A
:1068500020309DF913209A4205DA059B9B6893F836
:1068600020308DF81330059B5B690593059B002B49
:10687000E7D1029B9DF8132083F82020039B9B689F
:10688000002B1CD00398FFF708FE0346184600F0C3
:1068900075FE029000220021029801F081F8039B0E
:1068A000029ADA60029BDA6A039B5A61039B002218
:1068B0001A61029B039ADA62039B01221A76002076
:1068C00001F028F80023184607B05DF804FB00002B
:1068D00000B585B00190FFF7B7FD0346002B04D14A
:1068E000FFF7BFFD0346002B07D06FF00501002026
:1068F000FDF7C6FF0023039308E0019B0293029B70
:106900001846054B9C4600DF03460393039B18463D
:1069100005B05DF804FB00BF2D65000000B587B031
:1069200001900091FFF790FD0346002B04D1FFF783
:1069300098FD0346002B08D06FF005010198FDF784
:106940009FFF6FF0050305930BE0019B0493009BF1
:106950000393049B18460399044B9C4600DF0346AF
:106960000593059B184607B05DF804FB2D660000F3
:1069700000B585B00190FFF767FD0346002B04D1F9
:10698000FFF76FFD0346002B08D06FF0050101985B
:10699000FDF776FF6FF00503039308E0019B029378
:1069A000029B1846044B9C4600DF03460393039B5F
:1069B000184605B05DF804FB6967000082B0EFF38C
:1069C00005830193019B002B14BF01230023DBB23D
:1069D000184602B0704782B0EFF310830193019B19
:1069E000002B05D1EFF311830093009B002B01D006
:1069F000012300E0002303F00103DBB2184602B0DC
:106A0000704710B483B001900B46ADF80230019B83
:106A1000BDF80220D3E85F1F8A4202D8BFF32F8F50
:106A200004E0481CC3E8540F04B1F3E78CB22346DA
:106A3000184603B05DF8044B704710B483B0019062
:106A4000019BD3E85F2F12B9BFF32F8F04E0511ED3
:106A5000C3E8501F00B1F4E794B22346184603B0D0
:106A60005DF8044B704782B00190019B184602B05C
:106A7000704782B00190019B184602B07047000039
:106A8000014B5B69184670471803002000B585B0BC
:106A90000190019B0C331846FFF7CFFF0346002BF4
:106AA00002D00123039301E000230393039B1846C4
:106AB00005B05DF804FB00B585B00190019B03F1C2
:106AC0000C02019BDB8919461046FFF79AFF03462B
:106AD0001A46019BDB899A4202D20123039301E00B
